{"abi":[{"type":"constructor","inputs":[{"name":"_password","type":"uint256","internalType":"uint256"}],"stateMutability":"nonpayable"},{"type":"function","name":"bonusCounter","inputs":[],"outputs":[{"name":"","type":"uint256","internalType":"uint256"}],"stateMutability":"view"},{"type":"function","name":"changeOwner","inputs":[{"name":"_password","type":"uint256","internalType":"uint256"},{"name":"_newOwner","type":"address","internalType":"address"}],"outputs":[],"stateMutability":"nonpayable"},{"type":"function","name":"checkBonusCode","inputs":[{"name":"_bonusCode","type":"uint256","internalType":"uint256"}],"outputs":[{"name":"","type":"bool","internalType":"bool"}],"stateMutability":"nonpayable"},{"type":"function","name":"generateRandomNumber","inputs":[],"outputs":[{"name":"","type":"uint256","internalType":"uint256"}],"stateMutability":"view"},{"type":"function","name":"owner","inputs":[],"outputs":[{"name":"","type":"address","internalType":"address"}],"stateMutability":"view"},{"type":"function","name":"ownerCollectReward","inputs":[],"outputs":[],"stateMutability":"nonpayable"},{"type":"function","name":"ownerRewardPoints","inputs":[],"outputs":[{"name":"","type":"uint256","internalType":"uint256"}],"stateMutability":"view"}],"bytecode":{"object":"0x6080604052348015600f57600080fd5b506040516103bf3803806103bf833981016040819052602c916050565b600080546001600160a01b0319163317815560019190915560028190556003556068565b600060208284031215606157600080fd5b5051919050565b610348806100776000396000f3fe608060405234801561001057600080fd5b506004361061007d5760003560e01c8063784796f71161005b578063784796f7146100af5780638da5cb5b146100c4578063caf27a03146100ef578063cc07468b146100f757600080fd5b806336e3ab2a14610082578063742c89641461009e578063773a1154146100a7575b600080fd5b61008b60035481565b6040519081526020015b60405180910390f35b61008b60025481565b61008b61011a565b6100c26100bd366004610274565b610174565b005b6000546100d7906001600160a01b031681565b6040516001600160a01b039091168152602001610095565b6100c26101e2565b61010a6101053660046102b0565b610243565b6040519015158152602001610095565b60006064423360405160200161014c92919091825260601b6bffffffffffffffffffffffff1916602082015260340190565b6040516020818303038152906040528051906020012060001c61016f91906102c9565b905090565b60015482146101bf5760405162461bcd60e51b8152602060048201526012602482015271125b98dbdc9c9958dd081c185cdcdddbdc9960721b60448201526064015b60405180910390fd5b600080546001600160a01b0319166001600160a01b039290921691909117905550565b6000546001600160a01b0316331461022c5760405162461bcd60e51b815260206004820152600d60248201526c2737ba103a34329037bbb732b960991b60448201526064016101b6565b6003805490600061023c836102eb565b9190505550565b600081620d90380361026c576002805490600061025f836102eb565b9091555060019392505050565b506000919050565b6000806040838503121561028757600080fd5b8235915060208301356001600160a01b03811681146102a557600080fd5b809150509250929050565b6000602082840312156102c257600080fd5b5035919050565b6000826102e657634e487b7160e01b600052601260045260246000fd5b500690565b60006001820161030b57634e487b7160e01b600052601160045260246000fd5b506001019056fea26469706673582212203aed60855f72b2c113234e84e1bf07b698e10e8fcc6dbd2b2fd2becbc2e97f3d64736f6c63430008190033","linkReferences":{}},"methodIdentifiers":{"bonusCounter()":"742c8964","changeOwner(uint256,address)":"784796f7","checkBonusCode(uint256)":"cc07468b","generateRandomNumber()":"773a1154","owner()":"8da5cb5b","ownerCollectReward()":"caf27a03","ownerRewardPoints()":"36e3ab2a"},"id":0}