{"abi":[{"type":"constructor","inputs":[{"name":"_password","type":"uint256","internalType":"uint256"}],"stateMutability":"nonpayable"},{"type":"function","name":"changeOwner","inputs":[{"name":"_password","type":"uint256","internalType":"uint256"},{"name":"_newOwner","type":"address","internalType":"address"}],"outputs":[],"stateMutability":"nonpayable"},{"type":"function","name":"fakeCheckPassword","inputs":[{"name":"_password","type":"uint256","internalType":"uint256"}],"outputs":[{"name":"","type":"bool","internalType":"bool"}],"stateMutability":"view"},{"type":"function","name":"owner","inputs":[],"outputs":[{"name":"","type":"address","internalType":"address"}],"stateMutability":"view"},{"type":"function","name":"ownerOnlyAction","inputs":[],"outputs":[],"stateMutability":"nonpayable"},{"type":"function","name":"someUselessFunction","inputs":[],"outputs":[{"name":"","type":"string","internalType":"string"}],"stateMutability":"pure"}],"bytecode":{"object":"0x6080604052348015600f57600080fd5b50604051610307380380610307833981016040819052602c916045565b600080546001600160a01b03191633179055600155605d565b600060208284031215605657600080fd5b5051919050565b61029b8061006c6000396000f3fe608060405234801561001057600080fd5b50600436106100575760003560e01c80634d9e2f0f1461005c578063784796f71461009957806387e5ec88146100ae5780638da5cb5b146100b6578063e41dde13146100e1575b600080fd5b6040805180820182526012815271253ab9ba1030903234b9ba3930b1ba34b7b760711b6020820152905161009091906101c1565b60405180910390f35b6100ac6100a7366004610210565b610107565b005b6100ac610175565b6000546100c9906001600160a01b031681565b6040516001600160a01b039091168152602001610090565b6100f76100ef36600461024c565b6201e2401490565b6040519015158152602001610090565b60015482146101525760405162461bcd60e51b8152602060048201526012602482015271125b98dbdc9c9958dd081c185cdcdddbdc9960721b60448201526064015b60405180910390fd5b600080546001600160a01b0319166001600160a01b039290921691909117905550565b6000546001600160a01b031633146101bf5760405162461bcd60e51b815260206004820152600d60248201526c2737ba103a34329037bbb732b960991b6044820152606401610149565b565b60006020808352835180602085015260005b818110156101ef578581018301518582016040015282016101d3565b506000604082860101526040601f19601f8301168501019250505092915050565b6000806040838503121561022357600080fd5b8235915060208301356001600160a01b038116811461024157600080fd5b809150509250929050565b60006020828403121561025e57600080fd5b503591905056fea26469706673582212201cd24a876919981e43c19de9c8302d8b37ae64925b5423eb7239dcb0940dcc8e64736f6c63430008190033","linkReferences":{}},"methodIdentifiers":{"changeOwner(uint256,address)":"784796f7","fakeCheckPassword(uint256)":"e41dde13","owner()":"8da5cb5b","ownerOnlyAction()":"87e5ec88","someUselessFunction()":"4d9e2f0f"},"id":25}